:060000000A128A11142906
:10000800F000030EF100031383120C1822200B19C1
:100018001920031383128C182D20031383128C10BC
:10002800710E8300F00E700E09001E208810081152
:1000380076183728FF3081000B110800031383124C
:10004800E1308F00031383127C308E00A00A0C105D
:10005800080021183128211408002110080074080C
:10006800870008153A287508870088140130F606B5
:0200780008007E
:100200008A010A140F3982073F3406345B344F34B5
:1002100066346D347D3407347F34673477347C340E
:1002200039345E34793471341A21212130213E2150
:1002300045214B21031383160F138F160F120F1432
:1002400008000317831688018901031383168701A9
:1002500003138316880103138312870188010800A2
:10026000031383128B178B160B11031383168C1435
:100270000C14031383128C100C1008000313831644
:100280008112811101158114011403138312901638
:10029000101690101014031383124E3092000313A3
:1002A000831664309200031383125B21211C6221A8
:1002B00021186A214F2920080F39F200200E0F392A
:1002C000F300080072080021F40073080021F50013
:0E02D000081408000030F400F50008100800C3
:04400E00E43FFF3F4D
:00000001FF
