:1002000003178316880189010313831605108510CF
:100210000511851105168516061086100611861122
:100220000616861607108710071187110712881403
:100230000313831285018601870188010301051ECE
:100240002A21851E2E21061E3221861E3621881C5B
:100250003A211E29051E2A29850A0800851E2E29F5
:1002600085030800061E3229860A0800861E3629E4
:100270008603080003180716031C0712881C3E2972
:080280000508060787000800CD
:04400E00C130FF3F7F
:00000001FF
