:060000000A128A11142906
:10000800F000030EF1000B1876210B197C21710EFC
:080018008300F00E700E0900D8
:100200008A010A140F3982073F3406345B344F34B5
:1002100066346D347D3407347F34673477347C340E
:1002200039345E3479347134242152215F216D21B7
:1002300065210313831285013F3087008800F40194
:10024000F50183218721212903178316880189015C
:1002500003138316051085100511851103138316EA
:1002600006148614031383160710871007118711CD
:10027000071287120713031383160810881008113A
:1002800088110812881208130313831681130313AD
:1002900083161514951403138312850186018701B3
:1002A000880108000313831681128111011581143E
:1002B000011003138312D93081000B1108000313BE
:1002C00083160F178F120F120800031383168B1754
:1002D0008B150B108B160B110800031383161614C5
:1002E00096140313831206080B100800061C850AD7
:1002F000861C85030B10080003138312D93081007C
:100300000B11F50A080005080021870008003230AB
:10031000750203198C210800F501F40A7408002104
:040320008800080049
:04400E00E43FFF3F4D
:00000001FF
