:060000000A128A11142906
:100200008A010A140F3982073F3406345B344F34B5
:1002100066346D347D3407347F34673477347C340E
:1002200039345E34793471344421031783168801DC
:10023000890103138316051485140313831606100E
:1002400086100611861103138316071087100711F5
:10025000871107128712071303138316081003135D
:100260008316C7308100031383128501860187013D
:100270008801051C4B21851C52210B1D3D2959214C
:10028000860A08105D213929031383160F138F1670
:100290000F120F140800051C4B29A00A200800218A
:1002A00087000800851C5229A00B20080021870028
:1002B0000800013081000B11080006082002031914
:0A02C00062210800081486010800FE
:04400E00E43FFF3F4D
:00000001FF
