:060000000A128A11142906
:10000800F000030EF1000B1885210B198B21710EDE
:080018008300F00E700E0900D8
:100200008A010A140F3982073F3406345B344F34B5
:1002100066346D347D3407347F34673477347C340E
:1002200039345E3479347134312161216E21742185
:100230007D2103138312850188010730870008148C
:1002400008108814881008150811881588110816D8
:1002500008120130AA00A001A101BA21C121C821C0
:100260002D290317831688018901031383160510AE
:1002700085100511851105128512051385130313C9
:1002800083160614861403138316071087100711AC
:10029000871107128712071303138316081088109B
:1002A0000811881108120313831681130313831690
:1002B00015149514031383128501860187018801A3
:1002C000080003138316811281110111811401109A
:1002D000031383127D3081000B1108000313831672
:1002E0000F138F160F160800031383161614961497
:1002F0000313831206080B100800031383168B17D1
:100300008B150B108B160B110800061C850A861C1A
:1003100085030B100800031383127D3081000B113D
:100320002A189A29AA189F292A19A429AA19A92999
:100330002A1AAE298801250887000814B3298801E4
:10034000260887008814B329880127088700081524
:10035000B3298801280887008815B329880129084E
:1003600087000816B3290310AA1EB8290130AA0075
:10037000AA0D080005088F05A300050E8F05A20031
:10038000080022080021A50023080021A60008007B
:10039000A00103100508A4006430A402A00A0318F9
:1003A000CD29A003A40720080021A700D821080018
:1003B000A10103100A30A402A10A0318DB29A1033A
:1003C000A40721080021A80024080021A900080092
:04400E00E43FFF3F4D
:00000001FF
