:020000040000FA
:100000000A128A11FC2FFF1B0D2883137F188317F8
:100010000008840A0319FF0A08007F087F398A0054
:0A0020000408840A0319FF0A820095
:100D9800F000831203130C1ED22ED32ECD2E700812
:100DA800990008000A128A110A270A128A110A12DF
:100DB8008A1137270A128A11DB2E0A128A11002893
:100DC8007330F3007308F600EF2E77080A128A11C1
:100DD800CC260A128A117208F4007108F300F10A8D
:100DE8000319F20A740883120313FF0073088400BE
:100DF8000A128A1103200A128A11F5007508F700F1
:100E08007708031D082F092FE92E080083160317FA
:100E18008801890183160313850186018312031350
:100E280085018601831603130F178F160F160F14EB
:100E38008B170B178C160C16181218158316031718
:100E48008715D0308316031399009A018312031370
:100E5800981718131816831603139816831203137A
:100E68008C120C1208000330FA008A30F900553051
:100E7800F800F80B3D2FF90B3D2FFA0B3D2F442FAF
:100E8800B630F1008830F2000A128A11E4260A12FC
:100E98008A110330FA008A30F9005530F800F80B4F
:100EA800532FF90B532FFA0B532F5A2F9030F10071
:100EB8008830F2000A128A11E4260A128A110330D5
:100EC800FA008A30F9005530F800F80B692FF90B51
:100ED800692FFA0B692F702FD630F1008830F20095
:100EE8000A128A11E4260A128A110330FA008A309B
:100EF800F9005530F800F80B7F2FF90B7F2FFA0B0C
:100F08007F2F862FEF30F1008830F2000A128A1105
:100F1800E4260A128A11831203138C1E942F952F2C
:100F28008F2F31301A06031D9A2F9B2FB12F0630B1
:100F3800FA001330F900AD30F800F80BA12FF90BC7
:100F4800A12FFA0BA12FA82F6830F1008830F200EA
:100F58000A128A11E4260A128A1132308312031304
:100F68001A06031DB82FB92FD72F0630FA001330F1
:100F7800F900AD30F800F80BBF2FF90BBF2FFA0BB3
:100F8800BF2FC62F0030F1008830F2000A128A11F4
:100F9800E4260A128A11831203138C1ED42FD52F2C
:100FA800CF2F1A08850033301A06031DDC2FDD2FDA
:100FB800FB2F0630FA001330F900AD30F800F80BBB
:100FC800E32FF90BE32FFA0BE32FEA2F3430F1006C
:100FD8008830F2000A128A11E4260A128A11831252
:100FE80003138C1EF82FF92FF32F1A088600080018
:100FF80083010A128A11D62E203449346E34733490
:101008006534723474346534203465346C34203477
:1010180063346134723461346334743465347234E3
:101028002034713475346534203464346534733451
:1010380065346134203474347234613473346C34FC
:10104800613464346134723420346134203450346F
:101058004F3452345434413420340D342034003465
:10106800203449346E3473346534723474346534DE
:10107800203465346C342034633461347234613420
:10108800633474346534723420347134753465349F
:1010980020346434653473346534613420347434F2
:1010A8007234613473346C3461346434613472344E
:1010B80020346134203450344F3452345434423460
:1010C80020340D34203400342034443465347334EF
:1010D80070346C346534673461346E3464346F341E
:1010E800203463346134643465346E3461342034BC
:1010F8006434653420346334613472346134633465
:10110800743465347234653473342E342E342E348A
:1011180020340D3420340034203431342D3420343C
:1011280044346534733470346C34653467346134F2
:101138007234203463346134643465346E34613419
:101148002034643465342034633461347234613457
:1011580063347434653472346534733420340D3434
:10116800203400342034BF3451347534E934203409
:101178006134633463346934F3346E342034643452
:101188006534733465346134203465346A346534C5
:10119800633475347434613472343F3420340D341C
:1011A80020340034203432342D3420345434723412
:1011B800613473346C34613464346134723420348F
:1011C8006134203450344F34523454344134203450
:1011D8000D3420340034203433342D342034543446
:1011E8007234613473346C3461346434613472340D
:1011F80020346134203450344F345234543442341F
:0812080020340D3420340034C1
:04400E00D420FF3F7C
:00000001FF
